{
  "contractName": "BarOwners",
  "abi": [
    {
      "inputs": [
        {
          "internalType": "string",
          "name": "_barName",
          "type": "string"
        },
        {
          "internalType": "uint256",
          "name": "_startupCost",
          "type": "uint256"
        },
        {
          "internalType": "uint256",
          "name": "_investmentTime",
          "type": "uint256"
        }
      ],
      "stateMutability": "nonpayable",
      "type": "constructor"
    },
    {
      "inputs": [],
      "name": "availableFunds",
      "outputs": [
        {
          "internalType": "uint256",
          "name": "",
          "type": "uint256"
        }
      ],
      "stateMutability": "view",
      "type": "function",
      "constant": true
    },
    {
      "inputs": [],
      "name": "barName",
      "outputs": [
        {
          "internalType": "string",
          "name": "",
          "type": "string"
        }
      ],
      "stateMutability": "view",
      "type": "function",
      "constant": true
    },
    {
      "inputs": [
        {
          "internalType": "address",
          "name": "",
          "type": "address"
        }
      ],
      "name": "isOwner",
      "outputs": [
        {
          "internalType": "bool",
          "name": "",
          "type": "bool"
        }
      ],
      "stateMutability": "view",
      "type": "function",
      "constant": true
    },
    {
      "inputs": [],
      "name": "nextOwnerId",
      "outputs": [
        {
          "internalType": "uint256",
          "name": "",
          "type": "uint256"
        }
      ],
      "stateMutability": "view",
      "type": "function",
      "constant": true
    },
    {
      "inputs": [
        {
          "internalType": "uint256",
          "name": "",
          "type": "uint256"
        }
      ],
      "name": "owners",
      "outputs": [
        {
          "internalType": "address",
          "name": "addr",
          "type": "address"
        },
        {
          "internalType": "uint256",
          "name": "id",
          "type": "uint256"
        },
        {
          "internalType": "string",
          "name": "name",
          "type": "string"
        },
        {
          "internalType": "uint256",
          "name": "equity",
          "type": "uint256"
        }
      ],
      "stateMutability": "view",
      "type": "function",
      "constant": true
    },
    {
      "inputs": [],
      "name": "remainingFunds",
      "outputs": [
        {
          "internalType": "uint256",
          "name": "",
          "type": "uint256"
        }
      ],
      "stateMutability": "view",
      "type": "function",
      "constant": true
    },
    {
      "inputs": [
        {
          "internalType": "address",
          "name": "",
          "type": "address"
        }
      ],
      "name": "shares",
      "outputs": [
        {
          "internalType": "uint256",
          "name": "",
          "type": "uint256"
        }
      ],
      "stateMutability": "view",
      "type": "function",
      "constant": true
    },
    {
      "inputs": [],
      "name": "startupCost",
      "outputs": [
        {
          "internalType": "uint256",
          "name": "",
          "type": "uint256"
        }
      ],
      "stateMutability": "view",
      "type": "function",
      "constant": true
    },
    {
      "inputs": [],
      "name": "totalEquity",
      "outputs": [
        {
          "internalType": "uint256",
          "name": "",
          "type": "uint256"
        }
      ],
      "stateMutability": "view",
      "type": "function",
      "constant": true
    },
    {
      "inputs": [
        {
          "internalType": "string",
          "name": "_name",
          "type": "string"
        }
      ],
      "name": "newOwner",
      "outputs": [],
      "stateMutability": "payable",
      "type": "function",
      "payable": true
    }
  ],
  "bytecode": "0x60806040523480156200001157600080fd5b506040516200123e3803806200123e8339818101604052810190620000379190620001ad565b82600490805190602001906200004f92919062000074565b508160058190555080426200006591906200027b565b6006819055505050506200043c565b828054620000829062000318565b90600052602060002090601f016020900481019282620000a65760008555620000f2565b82601f10620000c157805160ff1916838001178555620000f2565b82800160010185558215620000f2579182015b82811115620000f1578251825591602001919060010190620000d4565b5b50905062000101919062000105565b5090565b5b808211156200012057600081600090555060010162000106565b5090565b60006200013b620001358462000245565b6200021c565b9050828152602081018484840111156200015457600080fd5b62000161848285620002e2565b509392505050565b600082601f8301126200017b57600080fd5b81516200018d84826020860162000124565b91505092915050565b600081519050620001a78162000422565b92915050565b600080600060608486031215620001c357600080fd5b600084015167ffffffffffffffff811115620001de57600080fd5b620001ec8682870162000169565b9350506020620001ff8682870162000196565b9250506040620002128682870162000196565b9150509250925092565b6000620002286200023b565b90506200023682826200034e565b919050565b6000604051905090565b600067ffffffffffffffff821115620002635762000262620003e2565b5b6200026e8262000411565b9050602081019050919050565b60006200028882620002d8565b91506200029583620002d8565b9250827fffffffffffffffffffffffffffffffffffffffffffffffffffffffffffffffff03821115620002cd57620002cc62000384565b5b828201905092915050565b6000819050919050565b60005b8381101562000302578082015181840152602081019050620002e5565b8381111562000312576000848401525b50505050565b600060028204905060018216806200033157607f821691505b60208210811415620003485762000347620003b3565b5b50919050565b620003598262000411565b810181811067ffffffffffffffff821117156200037b576200037a620003e2565b5b80604052505050565b7f4e487b7100000000000000000000000000000000000000000000000000000000600052601160045260246000fd5b7f4e487b7100000000000000000000000000000000000000000000000000000000600052602260045260246000fd5b7f4e487b7100000000000000000000000000000000000000000000000000000000600052604160045260246000fd5b6000601f19601f8301169050919050565b6200042d81620002d8565b81146200043957600080fd5b50565b610df2806200044c6000396000f3fe6080604052600436106100915760003560e01c8063a5aa542e11610059578063a5aa542e14610194578063af6bed8d146101bf578063b601818b146101ea578063cd28069a14610206578063ce7c2ac21461023157610091565b8063025e7c27146100965780632f54bf6e146100d657806346fcff4c14610113578063635f90271461013e578063a570a9c514610169575b600080fd5b3480156100a257600080fd5b506100bd60048036038101906100b891906108e6565b61026e565b6040516100cd94939291906109de565b60405180910390f35b3480156100e257600080fd5b506100fd60048036038101906100f89190610878565b610346565b60405161010a9190610a2a565b60405180910390f35b34801561011f57600080fd5b50610128610366565b6040516101359190610ac7565b60405180910390f35b34801561014a57600080fd5b5061015361036c565b6040516101609190610ac7565b60405180910390f35b34801561017557600080fd5b5061017e610372565b60405161018b9190610ac7565b60405180910390f35b3480156101a057600080fd5b506101a9610378565b6040516101b69190610ac7565b60405180910390f35b3480156101cb57600080fd5b506101d461037e565b6040516101e19190610a45565b60405180910390f35b61020460048036038101906101ff91906108a1565b61040c565b005b34801561021257600080fd5b5061021b61058e565b6040516102289190610ac7565b60405180910390f35b34801561023d57600080fd5b5061025860048036038101906102539190610878565b610594565b6040516102659190610ac7565b60405180910390f35b60086020528060005260406000206000915090508060000160009054906101000a900473ffffffffffffffffffffffffffffffffffffffff16908060010154908060020180546102bd90610c03565b80601f01602080910402602001604051908101604052809291908181526020018280546102e990610c03565b80156103365780601f1061030b57610100808354040283529160200191610336565b820191906000526020600020905b81548152906001019060200180831161031957829003601f168201915b5050505050908060030154905084565b60096020528060005260406000206000915054906101000a900460ff1681565b60025481565b60005481565b60015481565b60035481565b6004805461038b90610c03565b80601f01602080910402602001604051908101604052809291908181526020018280546103b790610c03565b80156104045780601f106103d957610100808354040283529160200191610404565b820191906000526020600020905b8154815290600101906020018083116103e757829003601f168201915b505050505081565b60003411801561041e57506005543411155b61045d576040517f08c379a000000000000000000000000000000000000000000000000000000000815260040161045490610aa7565b60405180910390fd5b60405180608001604052803373ffffffffffffffffffffffffffffffffffffffff168152602001600054815260200183838080601f016020809104026020016040519081016040528093929190818152602001838380828437600081840152601f19601f8201169050808301925050505050505081526020016000815250600860008054815260200190815260200160002060008201518160000160006101000a81548173ffffffffffffffffffffffffffffffffffffffff021916908373ffffffffffffffffffffffffffffffffffffffff16021790555060208201518160010155604082015181600201908051906020019061055c929190610761565b5060608201518160030155905050610573346105ac565b60008081548092919061058590610c35565b91905055505050565b60055481565b60076020528060005260406000206000915090505481565b60065442106105f0576040517f08c379a00000000000000000000000000000000000000000000000000000000081526004016105e790610a67565b60405180910390fd5b6005548111158015610611575060015460055461060d9190610b54565b8111155b610650576040517f08c379a000000000000000000000000000000000000000000000000000000000815260040161064790610a87565b60405180910390fd5b6001600960003373ffffffffffffffffffffffffffffffffffffffff1673ffffffffffffffffffffffffffffffffffffffff16815260200190815260200160002060006101000a81548160ff02191690831515021790555080600860008054815260200190815260200160002060030160008282546106cf9190610afe565b925050819055600760003373ffffffffffffffffffffffffffffffffffffffff1673ffffffffffffffffffffffffffffffffffffffff16815260200190815260200160002081905550806005546107269190610b54565b600381905550806001600082825461073e9190610afe565b9250508190555080600260008282546107579190610afe565b9250508190555050565b82805461076d90610c03565b90600052602060002090601f01602090048101928261078f57600085556107d6565b82601f106107a857805160ff19168380011785556107d6565b828001600101855582156107d6579182015b828111156107d55782518255916020019190600101906107ba565b5b5090506107e391906107e7565b5090565b5b808211156108005760008160009055506001016107e8565b5090565b60008135905061081381610d8e565b92915050565b60008083601f84011261082b57600080fd5b8235905067ffffffffffffffff81111561084457600080fd5b60208301915083600182028301111561085c57600080fd5b9250929050565b60008135905061087281610da5565b92915050565b60006020828403121561088a57600080fd5b600061089884828501610804565b91505092915050565b600080602083850312156108b457600080fd5b600083013567ffffffffffffffff8111156108ce57600080fd5b6108da85828601610819565b92509250509250929050565b6000602082840312156108f857600080fd5b600061090684828501610863565b91505092915050565b61091881610b88565b82525050565b61092781610b9a565b82525050565b600061093882610ae2565b6109428185610aed565b9350610952818560208601610bd0565b61095b81610cdc565b840191505092915050565b6000610973602583610aed565b915061097e82610ced565b604082019050919050565b6000610996601d83610aed565b91506109a182610d3c565b602082019050919050565b60006109b9601d83610aed565b91506109c482610d65565b602082019050919050565b6109d881610bc6565b82525050565b60006080820190506109f3600083018761090f565b610a0060208301866109cf565b8181036040830152610a12818561092d565b9050610a2160608301846109cf565b95945050505050565b6000602082019050610a3f600083018461091e565b92915050565b60006020820190508181036000830152610a5f818461092d565b905092915050565b60006020820190508181036000830152610a8081610966565b9050919050565b60006020820190508181036000830152610aa081610989565b9050919050565b60006020820190508181036000830152610ac0816109ac565b9050919050565b6000602082019050610adc60008301846109cf565b92915050565b600081519050919050565b600082825260208201905092915050565b6000610b0982610bc6565b9150610b1483610bc6565b9250827fffffffffffffffffffffffffffffffffffffffffffffffffffffffffffffffff03821115610b4957610b48610c7e565b5b828201905092915050565b6000610b5f82610bc6565b9150610b6a83610bc6565b925082821015610b7d57610b7c610c7e565b5b828203905092915050565b6000610b9382610ba6565b9050919050565b60008115159050919050565b600073ffffffffffffffffffffffffffffffffffffffff82169050919050565b6000819050919050565b60005b83811015610bee578082015181840152602081019050610bd3565b83811115610bfd576000848401525b50505050565b60006002820490506001821680610c1b57607f821691505b60208210811415610c2f57610c2e610cad565b5b50919050565b6000610c4082610bc6565b91507fffffffffffffffffffffffffffffffffffffffffffffffffffffffffffffffff821415610c7357610c72610c7e565b5b600182019050919050565b7f4e487b7100000000000000000000000000000000000000000000000000000000600052601160045260246000fd5b7f4e487b7100000000000000000000000000000000000000000000000000000000600052602260045260246000fd5b6000601f19601f8301169050919050565b7f43616e6e6f7420696e7665737420616674657220696e766573746d656e74207060008201527f6572696f64000000000000000000000000000000000000000000000000000000602082015250565b7f416d6f756e74206d757374206265203c3d2073746172747570436f7374000000600082015250565b7f4d75737420636f6e7472696275746520746f20696e766573746d656e74000000600082015250565b610d9781610b88565b8114610da257600080fd5b50565b610dae81610bc6565b8114610db957600080fd5b5056fea264697066735822122078b32ac08bb647a39e1d1bcd461a98cb121f7823e026401b994d11a0701ebfbb64736f6c63430008010033",
  "immutableReferences": {},
  "source": "// SPDX-License-Identifier: UNLICENSED\npragma solidity ^0.8.1;\n\ncontract BarOwners {\n    struct Owner {\n        address addr;\n        uint256 id;\n        string name;\n        uint256 equity;\n    }\n\n    uint256 public nextOwnerId;\n    uint256 public totalEquity;\n    uint256 public availableFunds;\n    uint256 public remainingFunds;\n    string public barName;\n    uint256 public startupCost;\n    uint256 private end;\n\n    mapping(address => uint256) public shares;\n    mapping(uint256 => Owner) public owners;\n    mapping(address => bool) public isOwner;\n\n    constructor(\n        string memory _barName,\n        uint256 _startupCost,\n        uint256 _investmentTime\n    ) {\n        barName = _barName;\n        startupCost = _startupCost;\n        end = block.timestamp + _investmentTime;\n    }\n\n    function newOwner(string calldata _name) external payable {\n        require(\n            msg.value > 0 && msg.value <= startupCost,\n            \"Must contribute to investment\"\n        );\n        owners[nextOwnerId] = Owner(msg.sender, nextOwnerId, _name, 0);\n        _invest(msg.value);\n        nextOwnerId++;\n    }\n\n    function _invest(uint256 _amount) internal {\n        require(block.timestamp < end, \"Cannot invest after investment period\");\n        require(\n            _amount <= startupCost && _amount <= startupCost - totalEquity,\n            \"Amount must be <= startupCost\"\n        );\n        isOwner[msg.sender] = true;\n        shares[msg.sender] = owners[nextOwnerId].equity += _amount;\n        remainingFunds = startupCost - _amount;\n        totalEquity += _amount;\n        availableFunds += _amount;\n    }\n\n    // Idk what im doing with this right now\n    // Should be helpful for later functions\n    modifier ownerOnly() {\n        require(isOwner[msg.sender] == true, \"Must be bar owner\");\n        _;\n    }\n}\n",
  "sourcePath": "/Users/heyyehudes/Documents/portfolio-project/bar-project/contracts/BarOwners.sol",
  "compiler": {
    "name": "solc",
    "version": "0.8.1+commit.df193b15.Emscripten.clang"
  },
  "schemaVersion": "3.3.1",
  "updatedAt": "2021-06-03T21:35:15.060Z",
  "networkType": "ethereum",
  "devdoc": {
    "kind": "dev",
    "methods": {},
    "version": 1
  },
  "userdoc": {
    "kind": "user",
    "methods": {},
    "version": 1
  }
}